:10001E004A7643694C616E674465586961546961FB
:10002E006E003D3D3D3D365F305F20655F5F3D5F5D
:10003E005F305F5F3D5F5F7C345F385F20715F5F75
:10004E003D5F5F385F5F3D5F5F7C355F395F207777
:10005E005F5F3D5F5F395F5F3D5F5F7C385F775FFE
:10006E0020745F5F3D5F5F775F5F3D5F5F7C3D202C
:10007E006F5F5F735F5F645F5F665F5F7C645F731C
:10008E005F5F20732D7C3D206F5F5F735F5F645FEA
:10009E005F665F5F7C645F735F5F645F665F665F12
:1000AE005F2D7C6F5F5F735F5F645F5F665F5F7C1A
:1000BE00645F735F5F20732D7C3D206F5F5F735FA6
:1000CE005F645F5F665F5F7C645F735F5F645F66E4
:1000DE005F665F5F2D7C665F677C685F685F5F68E9
:1000EE005F685F7C685F665F5F735F665F5F5F67B9
:1000FE005F5F7C685F685F5F685F685F7C685F6694
:10010E005F5F735F735F5F5F645F5F7C665F665F99
:10011E005F665F665F7C665F6A5F206A5F5F665FD1
:10012E005F5F645F5F5F735F7C6420705F705F5FB3
:10013E00705F5F7C705F615F5F3D5F5F206F5F5FD1
:10014E00735F5F645F5F665F5F7C645F735F5F209A
:10015E00732D7C3D206F5F5F735F5F645F5F665FD3
:10016E005F7C645F735F5F645F665F665F5F2D7C5D
:10017E006F5F5F735F5F645F5F665F5F7C645F731B
:10018E005F5F20732D7C3D206F5F5F735F5F645FE9
:10019E005F665F5F7C645F735F5F645F665F665F11
:1001AE005F2D7C665F677C685F685F5F685F685F16
:1001BE007C685F665F5F735F665F5F5F675F5F7CD4
:1001CE00685F685F5F685F685F7C685F665F5F73CC
:1001DE005F735F5F5F645F5F7C004875616E4C6547
:1001EE00446F7544695A6875003D3D3D3D6F705FC3
:1001FE00735F7C685F20685F6A5F5F685F665F68D9
:10020E00765F5F625F5F765F7C735F735F5F645F75
:10021E005F735F705F206F765F5F625F5F765F7C9C
:10022E00705F705F5F6F5F5F705F735F645F735F60
:10023E00645F665F7C685F685F5F6A5F5F685F666A
:10024E005F64625F5F765F5F7A5F7C685F685F5F47
:10025E006A5F5F685F665F68625F5F765F5F7C6440
:10026E005F645F5F665F5F645F735F707A5F5F7826
:10027E005F5F625F5F7C6F5F705F735F645F665F1F
:10028E006A5F665F685F7C645F645F5F665F5F6422
:10029E005F705F733D7C6A5F6A5F5F685F5F665F1A
:1002AE00685F6A665F7C685F685F5F6A5F5F685FF2
:1002BE00665F683D7C645F645F5F665F5F645F730B
:1002CE005F705F6F5F7C6473663D7C6A5F6A5F5FC1
:1002DE00685F5F665F685F6A665F7C685F685F5FC6
:1002EE006A5F5F685F665F683D7C645F645F5F66E0
:1002FE005F5F645F735F645F735F705F6F5F7C737C
:10030E003D6C5F5F685F5F665F5F2D7C0051694685
:10031E00656E674C65003D3D3D3D74797574705F4B
:10032E00345F5F6F5F5F385F5F705F715F2D20744A
:10033E005F615F5F355F5F705F5F395F5F615F77E2
:10034E005F2D20615F335F705F5F375F5F615F308E
:10035E005F75735F5F365F5F645F735F5F305F5FB4
:10036E00615F705F655F6F705F345F6F5F5F385F97
:10037E005F705F715F6F5F705F6F5F20705F355F83
:10038E006F5F5F395F5F795F775F6F20755F315F9A
:10039E0035383020745F775F79755F305F74705FCA
:1003AE00345F6F5F5F385F5F705F715F2D745F20CA
:1003BE00615F355F705F5F395F5F615F775F2D20D3
:1003CE00615F335F705F5F375F5F615F305F757373
:1003DE005F5F365F5F645F735F5F305F5F615F704B
:1003EE005F655F6F20705F345F665F5F385F5F666B
:1003FE005F715F6F705F355F665F5F395F5F665F0E
:10040E00775F6F20705F365F333638302D00446172
:10041E005975003D3D3D3D75797570207579756155
:10042E00207579757320612D6F2020757975702078
:10043E00757975612D6F2D7579757020757975616A
:10044E00207579757320612D6F20207975652D7952
:10045E00756577652D6574792D74652D20657479B4
:10046E002D74752D756F7020706F757920742D79C0
:10047E002D752D6574792D74652D206574792D7407
:10048E00752D7975652D79756577652D756F732D5C
:10049E0061752D7579742D7479752D7579742D702E
:1004AE007361706F7920752D756F732D61752D7554
:1004BE0079742D7479752D7975652D7975657765D6
:1004CE002D005A686941694C6953690075797579CF
:1004DE0075727974652038306572203077727420A9
:1004EE00307579757975797465203830657220307C
:1004FE007472656520727479757769797971757919
:10050E007430797465383065723077727430207556
:10051E0079757975727974652038306572307772B5
:10052E0074206520727479207577697520797175DC
:10053E0079207430797420723075667866757975A5
:10054E0079757975797579757279746500576F4813
:10055E0065576F44655A7547756F003D3D3D3D6F5C
:10056E005F705F6F5F695F755F795F7C742E772E4A
:10057E007C745F755F735F615F705F2E755F5F7C0C
:10058E006F7E7C705F615F705F6F5F695F755F7CB0
:10059E00792E652E7C725F655F775F6F5F745F2E5D
:1005AE00795F5F7C757E7C6F5F705F6F5F695F7573
:1005BE005F795F7C742E772E7C745F755F735F61DD
:1005CE005F645F2E735F5F7C707E7C735F615F70B4
:1005DE005F6F2E7C705F6F5F695F752E7C72655FDB
:1005EE0077795F7C747E7C004D656E675A686F6E9E
:1005FE0067446548756E4C69003D3D3D3D5F2E6A12
:10060E005F5F7C6A5F5F6B5F5F6B5F5F6C5F5F6C92
:10061E005F5F6B5F5F6B5F5F6A5F5F6A5F5F665FA7
:10062E005F665F5F735F5F735F5F705F5F705F5F7B
:10063E00685F5F7C685F5F675F5F675F5F665F5F76
:10064E00675F5F685F5F672E7C3D5F5F675F5F67B9
:10065E005F5F685F5F685F5F6A5F5F6A5F5F6B5F68
:10066E005F6B5F5F685F5F685F5F645F5F645F5F64
:10067E00675F5F7C675F5F665F5F665F5F645F5F3C
:10068E00665F5F675F5F662E7C665F20705F5F737D
:10069E005F5F665F5F645F5F20665F20705F5F73A2
:1006AE005F5F665F5F645F5F20665F20705F5F7392
:1006BE005F5F675F5F665F5F207C675F20675F5F7E
:1006CE00665F5F675F5F475F5F20685F20685F5FA1
:1006DE006A5F5F685F5F6A5F5F662E7C785F206A25
:1006EE005F5F6C5F5F785F5F7A5F5F20785F206A25
:1006FE005F5F6C5F5F785F5F7A5F5F20785F206A15
:10070E005F5F6C5F5F635F5F785F5F207C635F201E
:10071E00635F5F785F5F635F5F435F5F20765F203D
:10072E00765F5F625F5F765F5F625F5F782E7C6C85
:10073E005F2E665F5F665F5F675F5F675F2E645FFA
:10074E005F645F5F6B5F5F206B5F2E645F5F645FF4
:10075E005F665F5F20665F735F5F735F5F6A5F5F99
:10076E00685F5F7C6A5F2E735F5F735F5F645F5F5E
:10077E0020645F2E615F5F665F5F645F5F662E7CE5
:10078E006C5F2E6C5F5F6C5F5F7A5F5F7A5F2E6C63
:10079E005F5F6B5F5F6A5F5F685F2E685F5F6A5F58
:1007AE005F685F5F662E7C6C5F6C5F5F6C5F5F6C1B
:1007BE005F5F7A5F5F7A5F2E6C5F5F6B5F5F6A5F12
:1007CE005F20685F2E685F5F6A5F5F685F5F7C6A4D
:1007DE002D2D2D7C005469616E4B6F6E675A6869C2
:1007EE004368656E67003D3D3D3D7061732D6173DD
:1007FE002D662D612D2D2D75702D6F702D732D6F16
:10080E002D2D2D75692D7569732D2D2D73612D4926
:10081E0049732D732D702D6A2D6A682D682D2D73D9
:10082E002D642D73642D682D662D2D2D732D6A2D3F
:10083E006A682D682D2D732D642D73642D612D70B6
:10084E002D2D2D7061732D61732D662D612D2D2D26
:10085E00752D702D6F702D732D6F2D2D2D75692D9E
:10086E00732D66732D2D73612D702D612D4F2D708F
:10087E002D2D00F40DE2DEE59DE81AEA5BEC65EE47
:10088E003FEFEBF16FF2CFFBFBFEE4FEA6FCB4F7FD
:10089E001FFD03FD4BFD8DFA97FDC8FDFDFE2EFFDE
:1008AE0017FEFFFB19FB90F52EF7F6FC5CF8B8FA75
:0D08BE0007FEC6F633FE82F967FE5A0008F9
:100BE6002038216EFF001EFF003082FF01E8FF0162
:100BF600F796FF031BFF0324A0FF041CFF0421AA92
:100C0600FF04D0FF04DA5AFF055BFF05695AFF05AA
:100C1600F6FF0607AAFF07E3FF07F40259EA60C1D9
:050C260082C101C100C4
:100C7000D3EF9400EE6480948040147D6E7C00ED90
:0F0C80001D70011CED4C70F7EF1F70E41E80E13A
:010C8F002242
:0608CB008B098A0A890B6B
:1008D100120A56FD7C007E037FE8120AAE7C027D7F
:1008E10058120A9C8E0C8F0DE4F50FF510D202AB55
:1008F10009AA0AA90B900004120B03851082850F27
:1009010083120A6F7003020A552000FDD2023001E2
:1009110003C201227F01AB09AA0AA90B90000412AC
:100921000B03851082850F83120A6FFEC394614009
:1009310014EED3947A500EC202EE25E024D3F58250
:10094100E434078018EEC39430401FEED39439503D
:1009510019C202EE25E02421F582E43408F583E48E
:1009610093F559740193F55A8023BE3D04D2028058
:100971001CBE7C17D202AE0CE50D7803CEC313CE9C
:1009810013D8F9FF120C70E4FF8002E4FF0510E5B3
:10099100107002050FEF7003020A3FE4F50EAB0978
:1009A100AA0AA90B900004120B03851082850F83FC
:1009B100120A6FB45F0C0510E5107002050F050EE9
:1009C10080DCAB09AA0AA90B900004120B03851065
:1009D10082850F83120A6FB42D110510E510700284
:1009E100050FAF0DAE0C120C7080D7E50EFB7A002F
:1009F1007006AF0DAE0C8043EB64014A700BE50C41
:100A0100C313FEE50D13FF8032E50EFB7A0064028D
:100A11007010AE0CE50D7802CEC313CE13D8F9FFDA
:100A21008019C3EB9403EA648094804011AE0CE515
:100A31000D7803CEC313CE13D8F9FF120C70D20276
:100A4100AE0CE50D7803CEC313CE13D8F9FF120C0B
:040A5100700208F037
:010A5500227E
:100C2C00E4F508758901F58CF58AD2A9D28CD2A885
:100C3C00D288D2AAD28AD2AFE50875F007A42421B3
:100C4C00F9E4FAFB1208CB05089008C97401932447
:100C5C00FFFFE49334FFFED3E5089FE49E40D9E404
:040C6C00F50880D433
:03000B00020C9054
:100C9000C0E0E559F58C855A8A200202B2B4D0E052
:010CA0003221
:03000300020006F2
:03000600B2003213
:03001B0002000ED2
:03000E00D20132EA
:03000000020B5A96
:0C0B5A00787FE4F6D8FD75815A020BA1EB
:100A5600BB010689828A83E0225002E722BBFE029E
:090A6600E32289828A83E49322D1
:100A6F00BB010CE58229F582E5833AF583E022503C
:100A7F0006E92582F8E622BBFE06E92582F8E22286
:0D0A8F00E58229F582E5833AF583E49322A0
:100A9C00EF8DF0A4A8F0CF8CF0A428CE8DF0A42E6E
:020AAC00FE2228
:100AAE00BC000BBE0029EF8DF084FFADF022E4CC2C
:100ABE00F875F008EF2FFFEE33FEEC33FCEE9DECF5
:100ACE00984005FCEE9DFE0FD5F0E9E4CEFD22ED3B
:100ADE00F8F5F0EE8420D21CFEADF075F008EF2F85
:100AEE00FFED33FD4007985006D5F0F222C398FD76
:050AFE000FD5F0EA2213
:100B0300BB010DE58229F582E5833AF583020B3CAF
:100B13005007E92582F8020B33BBFE07E92582F86B
:100B2300020B45E58229F582E5833AF583020B4EF4
:100B6600020C2CE493A3F8E493A34003F68001F26D
:100B760008DFF48029E493A3F85407240CC8C33390
:100B8600C4540F4420C8834004F456800146F6DF5F
:100B9600E4800B0102040810204080900BE6E47EFE
:100BA600019360BCA3FF543F30E509541FFEE49354
:100BB600A360010ECF54C025E060A840B8E493A31B
:100BC600FAE493A3F8E493A3C8C582C8CAC583CA46
:100BD600F0A3C8C582C8CAC583CADFE9DEE780BEFE
:010C2B0000C8
:090B3300E6FB08E6FA08E6F922E7
:090B3C00E0FBA3E0FAA3E0F922BA
:090B4500E2FB08E2FA08E2F922E1
:0C0B4E00E493FB740193FA740293F92203
:00000001FF
